{"project/contracts/Counter.sol":{"Counter":{"abi":[{"inputs":[{"internalType":"uint256","name":"addx","type":"uint256"},{"internalType":"uint256","name":"addy","type":"uint256"}],"name":"add","outputs":[],"stateMutability":"nonpayable","type":"function"},{"inputs":[],"name":"getReserves","outputs":[{"internalType":"uint256","name":"","type":"uint256"},{"internalType":"uint256","name":"","type":"uint256"}],"stateMutability":"view","type":"function"},{"inputs":[],"name":"ratio","outputs":[{"internalType":"uint256","name":"","type":"uint256"}],"stateMutability":"view","type":"function"},{"inputs":[{"internalType":"uint256","name":"amount","type":"uint256"}],"name":"swapXForY","outputs":[],"stateMutability":"nonpayable","type":"function"},{"inputs":[{"internalType":"uint256","name":"amount","type":"uint256"}],"name":"swapYForX","outputs":[],"stateMutability":"nonpayable","type":"function"},{"inputs":[],"name":"x","outputs":[{"internalType":"uint256","name":"","type":"uint256"}],"stateMutability":"view","type":"function"},{"inputs":[],"name":"y","outputs":[{"internalType":"uint256","name":"","type":"uint256"}],"stateMutability":"view","type":"function"}],"evm":{"bytecode":{"linkReferences":{},"object":"6080604052600a5f55600560015560028055348015601b575f5ffd5b5061089f806100295f395ff3fe608060405234801561000f575f5ffd5b506004361061007b575f3560e01c806371ca337d1161005957806371ca337d146100d8578063771602f7146100f6578063a56dfe4a14610112578063d7da2e72146101305761007b565b80630902f1ac1461007f5780630c55699c1461009e578063160ffde5146100bc575b5f5ffd5b61008761014c565b604051610095929190610449565b60405180910390f35b6100a661015b565b6040516100b39190610470565b60405180910390f35b6100d660048036038101906100d191906104b7565b610160565b005b6100e0610275565b6040516100ed9190610470565b60405180910390f35b610110600480360381019061010b91906104e2565b61027b565b005b61011a610316565b6040516101279190610470565b60405180910390f35b61014a600480360381019061014591906104b7565b61031c565b005b5f5f5f54600154915091509091565b5f5481565b5f81116101a2576040517f08c379a00000000000000000000000000000000000000000000000000000000081526004016101999061057a565b60405180910390fd5b6001548111156101e7576040517f08c379a00000000000000000000000000000000000000000000000000000000081526004016101de906105e2565b60405180910390fd5b5f546002826101f6919061062d565b1115610237576040517f08c379a000000000000000000000000000000000000000000000000000000000815260040161022e906106b8565b60405180910390fd5b8060015f82825461024891906106d6565b9250508190555060028161025c919061062d565b5f5f82825461026b9190610709565b9250508190555050565b60025481565b6002548160015461028c9190610709565b835f546102999190610709565b6102a39190610769565b146102e3576040517f08c379a00000000000000000000000000000000000000000000000000000000081526004016102da906107e3565b60405180910390fd5b815f5f8282546102f39190610709565b925050819055508060015f82825461030b9190610709565b925050819055505050565b60015481565b5f811161035e576040517f08c379a00000000000000000000000000000000000000000000000000000000081526004016103559061057a565b60405180910390fd5b5f548111156103a2576040517f08c379a00000000000000000000000000000000000000000000000000000000081526004016103999061084b565b60405180910390fd5b6001546002826103b29190610769565b11156103f3576040517f08c379a00000000000000000000000000000000000000000000000000000000081526004016103ea906106b8565b60405180910390fd5b805f5f82825461040391906106d6565b925050819055506002816104179190610769565b60015f8282546104279190610709565b9250508190555050565b5f819050919050565b61044381610431565b82525050565b5f60408201905061045c5f83018561043a565b610469602083018461043a565b9392505050565b5f6020820190506104835f83018461043a565b92915050565b5f5ffd5b61049681610431565b81146104a0575f5ffd5b50565b5f813590506104b18161048d565b92915050565b5f602082840312156104cc576104cb610489565b5b5f6104d9848285016104a3565b91505092915050565b5f5f604083850312156104f8576104f7610489565b5b5f610505858286016104a3565b9250506020610516858286016104a3565b9150509250929050565b5f82825260208201905092915050565b7f616464656420616d6f756e742073686f756c6420626520706f736974697665005f82015250565b5f610564601f83610520565b915061056f82610530565b602082019050919050565b5f6020820190508181035f83015261059181610558565b9050919050565b7f6e6f7420656e6f756768205920746f20737761700000000000000000000000005f82015250565b5f6105cc601483610520565b91506105d782610598565b602082019050919050565b5f6020820190508181035f8301526105f9816105c0565b9050919050565b7f4e487b71000000000000000000000000000000000000000000000000000000005f52601160045260245ffd5b5f61063782610431565b915061064283610431565b925082820261065081610431565b9150828204841483151761066757610666610600565b5b5092915050565b7f6e6f7420656e6f756768206c69717569646974790000000000000000000000005f82015250565b5f6106a2601483610520565b91506106ad8261066e565b602082019050919050565b5f6020820190508181035f8301526106cf81610696565b9050919050565b5f6106e082610431565b91506106eb83610431565b925082820390508181111561070357610702610600565b5b92915050565b5f61071382610431565b915061071e83610431565b925082820190508082111561073657610735610600565b5b92915050565b7f4e487b71000000000000000000000000000000000000000000000000000000005f52601260045260245ffd5b5f61077382610431565b915061077e83610431565b92508261078e5761078d61073c565b5b828204905092915050565b7f616464656420616d6f756e74732073686f756c64206d6174636820726174696f5f82015250565b5f6107cd602083610520565b91506107d882610799565b602082019050919050565b5f6020820190508181035f8301526107fa816107c1565b9050919050565b7f6e6f7420656e6f756768205820746f20737761700000000000000000000000005f82015250565b5f610835601483610520565b915061084082610801565b602082019050919050565b5f6020820190508181035f83015261086281610829565b905091905056fea2646970667358221220fc6b17730176f43102ff020eea983cc982401c527e57a94aaf5c92328ab184f964736f6c634300081c0033","opcodes":"PUSH1 0x80 PUSH1 0x40 MSTORE PUSH1 0xA PUSH0 SSTORE PUSH1 0x5 PUSH1 0x1 SSTORE PUSH1 0x2 DUP1 SSTORE CALLVALUE DUP1 ISZERO PUSH1 0x1B JUMPI PUSH0 PUSH0 REVERT JUMPDEST POP PUSH2 0x89F DUP1 PUSH2 0x29 PUSH0 CODECOPY PUSH0 RETURN INVALID PUSH1 0x80 PUSH1 0x40 MSTORE CALLVALUE DUP1 ISZERO PUSH2 0xF JUMPI PUSH0 PUSH0 REVERT JUMPDEST POP PUSH1 0x4 CALLDATASIZE LT PUSH2 0x7B JUMPI PUSH0 CALLDATALOAD PUSH1 0xE0 SHR DUP1 PUSH4 0x71CA337D GT PUSH2 0x59 JUMPI DUP1 PUSH4 0x71CA337D EQ PUSH2 0xD8 JUMPI DUP1 PUSH4 0x771602F7 EQ PUSH2 0xF6 JUMPI DUP1 PUSH4 0xA56DFE4A EQ PUSH2 0x112 JUMPI DUP1 PUSH4 0xD7DA2E72 EQ PUSH2 0x130 JUMPI PUSH2 0x7B JUMP JUMPDEST DUP1 PUSH4 0x902F1AC EQ PUSH2 0x7F JUMPI DUP1 PUSH4 0xC55699C EQ PUSH2 0x9E JUMPI DUP1 PUSH4 0x160FFDE5 EQ PUSH2 0xBC JUMPI JUMPDEST PUSH0 PUSH0 REVERT JUMPDEST PUSH2 0x87 PUSH2 0x14C JUMP JUMPDEST PUSH1 0x40 MLOAD PUSH2 0x95 SWAP3 SWAP2 SWAP1 PUSH2 0x449 JUMP JUMPDEST PUSH1 0x40 MLOAD DUP1 SWAP2 SUB SWAP1 RETURN JUMPDEST PUSH2 0xA6 PUSH2 0x15B JUMP JUMPDEST PUSH1 0x40 MLOAD PUSH2 0xB3 SWAP2 SWAP1 PUSH2 0x470 JUMP JUMPDEST PUSH1 0x40 MLOAD DUP1 SWAP2 SUB SWAP1 RETURN JUMPDEST PUSH2 0xD6 PUSH1 0x4 DUP1 CALLDATASIZE SUB DUP2 ADD SWAP1 PUSH2 0xD1 SWAP2 SWAP1 PUSH2 0x4B7 JUMP JUMPDEST PUSH2 0x160 JUMP JUMPDEST STOP JUMPDEST PUSH2 0xE0 PUSH2 0x275 JUMP JUMPDEST PUSH1 0x40 MLOAD PUSH2 0xED SWAP2 SWAP1 PUSH2 0x470 JUMP JUMPDEST PUSH1 0x40 MLOAD DUP1 SWAP2 SUB SWAP1 RETURN JUMPDEST PUSH2 0x110 PUSH1 0x4 DUP1 CALLDATASIZE SUB DUP2 ADD SWAP1 PUSH2 0x10B SWAP2 SWAP1 PUSH2 0x4E2 JUMP JUMPDEST PUSH2 0x27B JUMP JUMPDEST STOP JUMPDEST PUSH2 0x11A PUSH2 0x316 JUMP JUMPDEST PUSH1 0x40 MLOAD PUSH2 0x127 SWAP2 SWAP1 PUSH2 0x470 JUMP JUMPDEST PUSH1 0x40 MLOAD DUP1 SWAP2 SUB SWAP1 RETURN JUMPDEST PUSH2 0x14A PUSH1 0x4 DUP1 CALLDATASIZE SUB DUP2 ADD SWAP1 PUSH2 0x145 SWAP2 SWAP1 PUSH2 0x4B7 JUMP JUMPDEST PUSH2 0x31C JUMP JUMPDEST STOP JUMPDEST PUSH0 PUSH0 PUSH0 SLOAD PUSH1 0x1 SLOAD SWAP2 POP SWAP2 POP SWAP1 SWAP2 JUMP JUMPDEST PUSH0 SLOAD DUP2 JUMP JUMPDEST PUSH0 DUP2 GT PUSH2 0x1A2 JUMPI PUSH1 0x40 MLOAD PUSH32 0x8C379A000000000000000000000000000000000000000000000000000000000 DUP2 MSTORE PUSH1 0x4 ADD PUSH2 0x199 SWAP1 PUSH2 0x57A JUMP JUMPDEST PUSH1 0x40 MLOAD DUP1 SWAP2 SUB SWAP1 REVERT JUMPDEST PUSH1 0x1 SLOAD DUP2 GT ISZERO PUSH2 0x1E7 JUMPI PUSH1 0x40 MLOAD PUSH32 0x8C379A000000000000000000000000000000000000000000000000000000000 DUP2 MSTORE PUSH1 0x4 ADD PUSH2 0x1DE SWAP1 PUSH2 0x5E2 JUMP JUMPDEST PUSH1 0x40 MLOAD DUP1 SWAP2 SUB SWAP1 REVERT JUMPDEST PUSH0 SLOAD PUSH1 0x2 DUP3 PUSH2 0x1F6 SWAP2 SWAP1 PUSH2 0x62D JUMP JUMPDEST GT ISZERO PUSH2 0x237 JUMPI PUSH1 0x40 MLOAD PUSH32 0x8C379A000000000000000000000000000000000000000000000000000000000 DUP2 MSTORE PUSH1 0x4 ADD PUSH2 0x22E SWAP1 PUSH2 0x6B8 JUMP JUMPDEST PUSH1 0x40 MLOAD DUP1 SWAP2 SUB SWAP1 REVERT JUMPDEST DUP1 PUSH1 0x1 PUSH0 DUP3 DUP3 SLOAD PUSH2 0x248 SWAP2 SWAP1 PUSH2 0x6D6 JUMP JUMPDEST SWAP3 POP POP DUP2 SWAP1 SSTORE POP PUSH1 0x2 DUP2 PUSH2 0x25C SWAP2 SWAP1 PUSH2 0x62D JUMP JUMPDEST PUSH0 PUSH0 DUP3 DUP3 SLOAD PUSH2 0x26B SWAP2 SWAP1 PUSH2 0x709 JUMP JUMPDEST SWAP3 POP POP DUP2 SWAP1 SSTORE POP POP JUMP JUMPDEST PUSH1 0x2 SLOAD DUP2 JUMP JUMPDEST PUSH1 0x2 SLOAD DUP2 PUSH1 0x1 SLOAD PUSH2 0x28C SWAP2 SWAP1 PUSH2 0x709 JUMP JUMPDEST DUP4 PUSH0 SLOAD PUSH2 0x299 SWAP2 SWAP1 PUSH2 0x709 JUMP JUMPDEST PUSH2 0x2A3 SWAP2 SWAP1 PUSH2 0x769 JUMP JUMPDEST EQ PUSH2 0x2E3 JUMPI PUSH1 0x40 MLOAD PUSH32 0x8C379A000000000000000000000000000000000000000000000000000000000 DUP2 MSTORE PUSH1 0x4 ADD PUSH2 0x2DA SWAP1 PUSH2 0x7E3 JUMP JUMPDEST PUSH1 0x40 MLOAD DUP1 SWAP2 SUB SWAP1 REVERT JUMPDEST DUP2 PUSH0 PUSH0 DUP3 DUP3 SLOAD PUSH2 0x2F3 SWAP2 SWAP1 PUSH2 0x709 JUMP JUMPDEST SWAP3 POP POP DUP2 SWAP1 SSTORE POP DUP1 PUSH1 0x1 PUSH0 DUP3 DUP3 SLOAD PUSH2 0x30B SWAP2 SWAP1 PUSH2 0x709 JUMP JUMPDEST SWAP3 POP POP DUP2 SWAP1 SSTORE POP POP POP JUMP JUMPDEST PUSH1 0x1 SLOAD DUP2 JUMP JUMPDEST PUSH0 DUP2 GT PUSH2 0x35E JUMPI PUSH1 0x40 MLOAD PUSH32 0x8C379A000000000000000000000000000000000000000000000000000000000 DUP2 MSTORE PUSH1 0x4 ADD PUSH2 0x355 SWAP1 PUSH2 0x57A JUMP JUMPDEST PUSH1 0x40 MLOAD DUP1 SWAP2 SUB SWAP1 REVERT JUMPDEST PUSH0 SLOAD DUP2 GT ISZERO PUSH2 0x3A2 JUMPI PUSH1 0x40 MLOAD PUSH32 0x8C379A000000000000000000000000000000000000000000000000000000000 DUP2 MSTORE PUSH1 0x4 ADD PUSH2 0x399 SWAP1 PUSH2 0x84B JUMP JUMPDEST PUSH1 0x40 MLOAD DUP1 SWAP2 SUB SWAP1 REVERT JUMPDEST PUSH1 0x1 SLOAD PUSH1 0x2 DUP3 PUSH2 0x3B2 SWAP2 SWAP1 PUSH2 0x769 JUMP JUMPDEST GT ISZERO PUSH2 0x3F3 JUMPI PUSH1 0x40 MLOAD PUSH32 0x8C379A000000000000000000000000000000000000000000000000000000000 DUP2 MSTORE PUSH1 0x4 ADD PUSH2 0x3EA SWAP1 PUSH2 0x6B8 JUMP JUMPDEST PUSH1 0x40 MLOAD DUP1 SWAP2 SUB SWAP1 REVERT JUMPDEST DUP1 PUSH0 PUSH0 DUP3 DUP3 SLOAD PUSH2 0x403 SWAP2 SWAP1 PUSH2 0x6D6 JUMP JUMPDEST SWAP3 POP POP DUP2 SWAP1 SSTORE POP PUSH1 0x2 DUP2 PUSH2 0x417 SWAP2 SWAP1 PUSH2 0x769 JUMP JUMPDEST PUSH1 0x1 PUSH0 DUP3 DUP3 SLOAD PUSH2 0x427 SWAP2 SWAP1 PUSH2 0x709 JUMP JUMPDEST SWAP3 POP POP DUP2 SWAP1 SSTORE POP POP JUMP JUMPDEST PUSH0 DUP2 SWAP1 POP SWAP2 SWAP1 POP JUMP JUMPDEST PUSH2 0x443 DUP2 PUSH2 0x431 JUMP JUMPDEST DUP3 MSTORE POP POP JUMP JUMPDEST PUSH0 PUSH1 0x40 DUP3 ADD SWAP1 POP PUSH2 0x45C PUSH0 DUP4 ADD DUP6 PUSH2 0x43A JUMP JUMPDEST PUSH2 0x469 PUSH1 0x20 DUP4 ADD DUP5 PUSH2 0x43A JUMP JUMPDEST SWAP4 SWAP3 POP POP POP JUMP JUMPDEST PUSH0 PUSH1 0x20 DUP3 ADD SWAP1 POP PUSH2 0x483 PUSH0 DUP4 ADD DUP5 PUSH2 0x43A JUMP JUMPDEST SWAP3 SWAP2 POP POP JUMP JUMPDEST PUSH0 PUSH0 REVERT JUMPDEST PUSH2 0x496 DUP2 PUSH2 0x431 JUMP JUMPDEST DUP2 EQ PUSH2 0x4A0 JUMPI PUSH0 PUSH0 REVERT JUMPDEST POP JUMP JUMPDEST PUSH0 DUP2 CALLDATALOAD SWAP1 POP PUSH2 0x4B1 DUP2 PUSH2 0x48D JUMP JUMPDEST SWAP3 SWAP2 POP POP JUMP JUMPDEST PUSH0 PUSH1 0x20 DUP3 DUP5 SUB SLT ISZERO PUSH2 0x4CC JUMPI PUSH2 0x4CB PUSH2 0x489 JUMP JUMPDEST JUMPDEST PUSH0 PUSH2 0x4D9 DUP5 DUP3 DUP6 ADD PUSH2 0x4A3 JUMP JUMPDEST SWAP2 POP POP SWAP3 SWAP2 POP POP JUMP JUMPDEST PUSH0 PUSH0 PUSH1 0x40 DUP4 DUP6 SUB SLT ISZERO PUSH2 0x4F8 JUMPI PUSH2 0x4F7 PUSH2 0x489 JUMP JUMPDEST JUMPDEST PUSH0 PUSH2 0x505 DUP6 DUP3 DUP7 ADD PUSH2 0x4A3 JUMP JUMPDEST SWAP3 POP POP PUSH1 0x20 PUSH2 0x516 DUP6 DUP3 DUP7 ADD PUSH2 0x4A3 JUMP JUMPDEST SWAP2 POP POP SWAP3 POP SWAP3 SWAP1 POP JUMP JUMPDEST PUSH0 DUP3 DUP3 MSTORE PUSH1 0x20 DUP3 ADD SWAP1 POP SWAP3 SWAP2 POP POP JUMP JUMPDEST PUSH32 0x616464656420616D6F756E742073686F756C6420626520706F73697469766500 PUSH0 DUP3 ADD MSTORE POP JUMP JUMPDEST PUSH0 PUSH2 0x564 PUSH1 0x1F DUP4 PUSH2 0x520 JUMP JUMPDEST SWAP2 POP PUSH2 0x56F DUP3 PUSH2 0x530 JUMP JUMPDEST PUSH1 0x20 DUP3 ADD SWAP1 POP SWAP2 SWAP1 POP JUMP JUMPDEST PUSH0 PUSH1 0x20 DUP3 ADD SWAP1 POP DUP2 DUP2 SUB PUSH0 DUP4 ADD MSTORE PUSH2 0x591 DUP2 PUSH2 0x558 JUMP JUMPDEST SWAP1 POP SWAP2 SWAP1 POP JUMP JUMPDEST PUSH32 0x6E6F7420656E6F756768205920746F2073776170000000000000000000000000 PUSH0 DUP3 ADD MSTORE POP JUMP JUMPDEST PUSH0 PUSH2 0x5CC PUSH1 0x14 DUP4 PUSH2 0x520 JUMP JUMPDEST SWAP2 POP PUSH2 0x5D7 DUP3 PUSH2 0x598 JUMP JUMPDEST PUSH1 0x20 DUP3 ADD SWAP1 POP SWAP2 SWAP1 POP JUMP JUMPDEST PUSH0 PUSH1 0x20 DUP3 ADD SWAP1 POP DUP2 DUP2 SUB PUSH0 DUP4 ADD MSTORE PUSH2 0x5F9 DUP2 PUSH2 0x5C0 JUMP JUMPDEST SWAP1 POP SWAP2 SWAP1 POP JUMP JUMPDEST PUSH32 0x4E487B7100000000000000000000000000000000000000000000000000000000 PUSH0 MSTORE PUSH1 0x11 PUSH1 0x4 MSTORE PUSH1 0x24 PUSH0 REVERT JUMPDEST PUSH0 PUSH2 0x637 DUP3 PUSH2 0x431 JUMP JUMPDEST SWAP2 POP PUSH2 0x642 DUP4 PUSH2 0x431 JUMP JUMPDEST SWAP3 POP DUP3 DUP3 MUL PUSH2 0x650 DUP2 PUSH2 0x431 JUMP JUMPDEST SWAP2 POP DUP3 DUP3 DIV DUP5 EQ DUP4 ISZERO OR PUSH2 0x667 JUMPI PUSH2 0x666 PUSH2 0x600 JUMP JUMPDEST JUMPDEST POP SWAP3 SWAP2 POP POP JUMP JUMPDEST PUSH32 0x6E6F7420656E6F756768206C6971756964697479000000000000000000000000 PUSH0 DUP3 ADD MSTORE POP JUMP JUMPDEST PUSH0 PUSH2 0x6A2 PUSH1 0x14 DUP4 PUSH2 0x520 JUMP JUMPDEST SWAP2 POP PUSH2 0x6AD DUP3 PUSH2 0x66E JUMP JUMPDEST PUSH1 0x20 DUP3 ADD SWAP1 POP SWAP2 SWAP1 POP JUMP JUMPDEST PUSH0 PUSH1 0x20 DUP3 ADD SWAP1 POP DUP2 DUP2 SUB PUSH0 DUP4 ADD MSTORE PUSH2 0x6CF DUP2 PUSH2 0x696 JUMP JUMPDEST SWAP1 POP SWAP2 SWAP1 POP JUMP JUMPDEST PUSH0 PUSH2 0x6E0 DUP3 PUSH2 0x431 JUMP JUMPDEST SWAP2 POP PUSH2 0x6EB DUP4 PUSH2 0x431 JUMP JUMPDEST SWAP3 POP DUP3 DUP3 SUB SWAP1 POP DUP2 DUP2 GT ISZERO PUSH2 0x703 JUMPI PUSH2 0x702 PUSH2 0x600 JUMP JUMPDEST JUMPDEST SWAP3 SWAP2 POP POP JUMP JUMPDEST PUSH0 PUSH2 0x713 DUP3 PUSH2 0x431 JUMP JUMPDEST SWAP2 POP PUSH2 0x71E DUP4 PUSH2 0x431 JUMP JUMPDEST SWAP3 POP DUP3 DUP3 ADD SWAP1 POP DUP1 DUP3 GT ISZERO PUSH2 0x736 JUMPI PUSH2 0x735 PUSH2 0x600 JUMP JUMPDEST JUMPDEST SWAP3 SWAP2 POP POP JUMP JUMPDEST PUSH32 0x4E487B7100000000000000000000000000000000000000000000000000000000 PUSH0 MSTORE PUSH1 0x12 PUSH1 0x4 MSTORE PUSH1 0x24 PUSH0 REVERT JUMPDEST PUSH0 PUSH2 0x773 DUP3 PUSH2 0x431 JUMP JUMPDEST SWAP2 POP PUSH2 0x77E DUP4 PUSH2 0x431 JUMP JUMPDEST SWAP3 POP DUP3 PUSH2 0x78E JUMPI PUSH2 0x78D PUSH2 0x73C JUMP JUMPDEST JUMPDEST DUP3 DUP3 DIV SWAP1 POP SWAP3 SWAP2 POP POP JUMP JUMPDEST PUSH32 0x616464656420616D6F756E74732073686F756C64206D6174636820726174696F PUSH0 DUP3 ADD MSTORE POP JUMP JUMPDEST PUSH0 PUSH2 0x7CD PUSH1 0x20 DUP4 PUSH2 0x520 JUMP JUMPDEST SWAP2 POP PUSH2 0x7D8 DUP3 PUSH2 0x799 JUMP JUMPDEST PUSH1 0x20 DUP3 ADD SWAP1 POP SWAP2 SWAP1 POP JUMP JUMPDEST PUSH0 PUSH1 0x20 DUP3 ADD SWAP1 POP DUP2 DUP2 SUB PUSH0 DUP4 ADD MSTORE PUSH2 0x7FA DUP2 PUSH2 0x7C1 JUMP JUMPDEST SWAP1 POP SWAP2 SWAP1 POP JUMP JUMPDEST PUSH32 0x6E6F7420656E6F756768205820746F2073776170000000000000000000000000 PUSH0 DUP3 ADD MSTORE POP JUMP JUMPDEST PUSH0 PUSH2 0x835 PUSH1 0x14 DUP4 PUSH2 0x520 JUMP JUMPDEST SWAP2 POP PUSH2 0x840 DUP3 PUSH2 0x801 JUMP JUMPDEST PUSH1 0x20 DUP3 ADD SWAP1 POP SWAP2 SWAP1 POP JUMP JUMPDEST PUSH0 PUSH1 0x20 DUP3 ADD SWAP1 POP DUP2 DUP2 SUB PUSH0 DUP4 ADD MSTORE PUSH2 0x862 DUP2 PUSH2 0x829 JUMP JUMPDEST SWAP1 POP SWAP2 SWAP1 POP JUMP INVALID LOG2 PUSH5 0x6970667358 0x22 SLT KECCAK256 0xFC PUSH12 0x17730176F43102FF020EEA98 EXTCODECOPY 0xC9 DUP3 BLOCKHASH SHR MSTORE PUSH31 0x57A94AAF5C92328AB184F964736F6C634300081C0033000000000000000000 "},"methodIdentifiers":{"add(uint256,uint256)":"771602f7","getReserves()":"0902f1ac","ratio()":"71ca337d","swapXForY(uint256)":"d7da2e72","swapYForX(uint256)":"160ffde5","x()":"0c55699c","y()":"a56dfe4a"}}}}}