{
  "_format": "hh3-artifact-1",
  "contractName": "Counter",
  "sourceName": "contracts/Counter.sol",
  "abi": [
    {
      "inputs": [
        {
          "internalType": "uint256",
          "name": "addx",
          "type": "uint256"
        },
        {
          "internalType": "uint256",
          "name": "addy",
          "type": "uint256"
        }
      ],
      "name": "add",
      "outputs": [],
      "stateMutability": "nonpayable",
      "type": "function"
    },
    {
      "inputs": [],
      "name": "getReserves",
      "outputs": [
        {
          "internalType": "uint256",
          "name": "",
          "type": "uint256"
        },
        {
          "internalType": "uint256",
          "name": "",
          "type": "uint256"
        }
      ],
      "stateMutability": "view",
      "type": "function"
    },
    {
      "inputs": [],
      "name": "ratio",
      "outputs": [
        {
          "internalType": "uint256",
          "name": "",
          "type": "uint256"
        }
      ],
      "stateMutability": "view",
      "type": "function"
    },
    {
      "inputs": [
        {
          "internalType": "uint256",
          "name": "amount",
          "type": "uint256"
        }
      ],
      "name": "swapXForY",
      "outputs": [],
      "stateMutability": "nonpayable",
      "type": "function"
    },
    {
      "inputs": [
        {
          "internalType": "uint256",
          "name": "amount",
          "type": "uint256"
        }
      ],
      "name": "swapYForX",
      "outputs": [],
      "stateMutability": "nonpayable",
      "type": "function"
    },
    {
      "inputs": [],
      "name": "x",
      "outputs": [
        {
          "internalType": "uint256",
          "name": "",
          "type": "uint256"
        }
      ],
      "stateMutability": "view",
      "type": "function"
    },
    {
      "inputs": [],
      "name": "y",
      "outputs": [
        {
          "internalType": "uint256",
          "name": "",
          "type": "uint256"
        }
      ],
      "stateMutability": "view",
      "type": "function"
    }
  ],
  "bytecode": "0x6080604052600a5f55600560015560028055348015601b575f5ffd5b506104cc806100295f395ff3fe608060405234801561000f575f5ffd5b506004361061007a575f3560e01c806371ca337d1161005857806371ca337d146100c8578063771602f7146100d1578063a56dfe4a146100e4578063d7da2e72146100ed575f5ffd5b80630902f1ac1461007e5780630c55699c1461009d578063160ffde5146100b3575b5f5ffd5b5f54600154604080519283526020830191909152015b60405180910390f35b6100a55f5481565b604051908152602001610094565b6100c66100c13660046103e9565b610100565b005b6100a560025481565b6100c66100df366004610400565b610228565b6100a560015481565b6100c66100fb3660046103e9565b6102ce565b5f81116101545760405162461bcd60e51b815260206004820152601f60248201527f616464656420616d6f756e742073686f756c6420626520706f7369746976650060448201526064015b60405180910390fd5b60015481111561019d5760405162461bcd60e51b815260206004820152601460248201527306e6f7420656e6f756768205920746f20737761760641b604482015260640161014b565b5f546101aa826002610434565b11156101ef5760405162461bcd60e51b81526020600482015260146024820152736e6f7420656e6f756768206c697175696469747960601b604482015260640161014b565b8060015f8282546102009190610451565b909155506102119050816002610434565b5f5f8282546102209190610464565b909155505050565b600254816001546102399190610464565b835f546102469190610464565b6102509190610477565b1461029d5760405162461bcd60e51b815260206004820181905260248201527f616464656420616d6f756e74732073686f756c64206d6174636820726174696f604482015260640161014b565b815f5f8282546102ad9190610464565b925050819055508060015f8282546102c59190610464565b90915550505050565b5f811161031d5760405162461bcd60e51b815260206004820152601f60248201527f616464656420616d6f756e742073686f756c6420626520706f73697469766500604482015260640161014b565b5f548111156103655760405162461bcd60e51b815260206004820152601460248201527306e6f7420656e6f756768205820746f20737761760641b604482015260640161014b565b600154610373600283610477565b11156103b85760405162461bcd60e51b81526020600482015260146024820152736e6f7420656e6f756768206c697175696469747960601b604482015260640161014b565b805f5f8282546103c89190610451565b909155506103d99050600282610477565b60015f8282546102209190610464565b5f602082840312156103f9575f5ffd5b5035919050565b5f5f60408385031215610411575f5ffd5b50508035926020909101359150565b634e487b7160e01b5f52601160045260245ffd5b808202811582820484141761044b5761044b610420565b92915050565b8181038181111561044b5761044b610420565b8082018082111561044b5761044b610420565b5f8261049157634e487b7160e01b5f52601260045260245ffd5b50049056fea2646970667358221220f07c4528076bc94002fa59ddf2023fb502cd72d2148e5b21d21453e6a0554ea664736f6c634300081c0033",
  "linkReferences": {},
  "deployedLinkReferences": {},
  "immutableReferences": {},
  "inputSourceName": "project/contracts/Counter.sol",
  "buildInfoId": "solc-0_8_28-d0ef415189fa5c83c31abe27e769371ad0480bb7"
}