{
  "_format": "hh3-artifact-1",
  "contractName": "Counter",
  "sourceName": "contracts/Counter.sol",
  "abi": [
    {
      "inputs": [
        {
          "internalType": "uint256",
          "name": "addx",
          "type": "uint256"
        },
        {
          "internalType": "uint256",
          "name": "addy",
          "type": "uint256"
        }
      ],
      "name": "add",
      "outputs": [],
      "stateMutability": "nonpayable",
      "type": "function"
    },
    {
      "inputs": [],
      "name": "getReserves",
      "outputs": [
        {
          "internalType": "uint256",
          "name": "",
          "type": "uint256"
        },
        {
          "internalType": "uint256",
          "name": "",
          "type": "uint256"
        }
      ],
      "stateMutability": "view",
      "type": "function"
    },
    {
      "inputs": [],
      "name": "ratio",
      "outputs": [
        {
          "internalType": "uint256",
          "name": "",
          "type": "uint256"
        }
      ],
      "stateMutability": "view",
      "type": "function"
    },
    {
      "inputs": [
        {
          "internalType": "uint256",
          "name": "amount",
          "type": "uint256"
        }
      ],
      "name": "swapXForY",
      "outputs": [],
      "stateMutability": "nonpayable",
      "type": "function"
    },
    {
      "inputs": [
        {
          "internalType": "uint256",
          "name": "amount",
          "type": "uint256"
        }
      ],
      "name": "swapYForX",
      "outputs": [],
      "stateMutability": "nonpayable",
      "type": "function"
    },
    {
      "inputs": [],
      "name": "x",
      "outputs": [
        {
          "internalType": "uint256",
          "name": "",
          "type": "uint256"
        }
      ],
      "stateMutability": "view",
      "type": "function"
    },
    {
      "inputs": [],
      "name": "y",
      "outputs": [
        {
          "internalType": "uint256",
          "name": "",
          "type": "uint256"
        }
      ],
      "stateMutability": "view",
      "type": "function"
    }
  ],
  "bytecode": "0x6080604052600a5f55600560015560028055348015601b575f5ffd5b5061089f806100295f395ff3fe608060405234801561000f575f5ffd5b506004361061007b575f3560e01c806371ca337d1161005957806371ca337d146100d8578063771602f7146100f6578063a56dfe4a14610112578063d7da2e72146101305761007b565b80630902f1ac1461007f5780630c55699c1461009e578063160ffde5146100bc575b5f5ffd5b61008761014c565b604051610095929190610449565b60405180910390f35b6100a661015b565b6040516100b39190610470565b60405180910390f35b6100d660048036038101906100d191906104b7565b610160565b005b6100e0610275565b6040516100ed9190610470565b60405180910390f35b610110600480360381019061010b91906104e2565b61027b565b005b61011a610316565b6040516101279190610470565b60405180910390f35b61014a600480360381019061014591906104b7565b61031c565b005b5f5f5f54600154915091509091565b5f5481565b5f81116101a2576040517f08c379a00000000000000000000000000000000000000000000000000000000081526004016101999061057a565b60405180910390fd5b6001548111156101e7576040517f08c379a00000000000000000000000000000000000000000000000000000000081526004016101de906105e2565b60405180910390fd5b5f546002826101f6919061062d565b1115610237576040517f08c379a000000000000000000000000000000000000000000000000000000000815260040161022e906106b8565b60405180910390fd5b8060015f82825461024891906106d6565b9250508190555060028161025c919061062d565b5f5f82825461026b9190610709565b9250508190555050565b60025481565b6002548160015461028c9190610709565b835f546102999190610709565b6102a39190610769565b146102e3576040517f08c379a00000000000000000000000000000000000000000000000000000000081526004016102da906107e3565b60405180910390fd5b815f5f8282546102f39190610709565b925050819055508060015f82825461030b9190610709565b925050819055505050565b60015481565b5f811161035e576040517f08c379a00000000000000000000000000000000000000000000000000000000081526004016103559061057a565b60405180910390fd5b5f548111156103a2576040517f08c379a00000000000000000000000000000000000000000000000000000000081526004016103999061084b565b60405180910390fd5b6001546002826103b29190610769565b11156103f3576040517f08c379a00000000000000000000000000000000000000000000000000000000081526004016103ea906106b8565b60405180910390fd5b805f5f82825461040391906106d6565b925050819055506002816104179190610769565b60015f8282546104279190610709565b9250508190555050565b5f819050919050565b61044381610431565b82525050565b5f60408201905061045c5f83018561043a565b610469602083018461043a565b9392505050565b5f6020820190506104835f83018461043a565b92915050565b5f5ffd5b61049681610431565b81146104a0575f5ffd5b50565b5f813590506104b18161048d565b92915050565b5f602082840312156104cc576104cb610489565b5b5f6104d9848285016104a3565b91505092915050565b5f5f604083850312156104f8576104f7610489565b5b5f610505858286016104a3565b9250506020610516858286016104a3565b9150509250929050565b5f82825260208201905092915050565b7f616464656420616d6f756e742073686f756c6420626520706f736974697665005f82015250565b5f610564601f83610520565b915061056f82610530565b602082019050919050565b5f6020820190508181035f83015261059181610558565b9050919050565b7f6e6f7420656e6f756768205920746f20737761700000000000000000000000005f82015250565b5f6105cc601483610520565b91506105d782610598565b602082019050919050565b5f6020820190508181035f8301526105f9816105c0565b9050919050565b7f4e487b71000000000000000000000000000000000000000000000000000000005f52601160045260245ffd5b5f61063782610431565b915061064283610431565b925082820261065081610431565b9150828204841483151761066757610666610600565b5b5092915050565b7f6e6f7420656e6f756768206c69717569646974790000000000000000000000005f82015250565b5f6106a2601483610520565b91506106ad8261066e565b602082019050919050565b5f6020820190508181035f8301526106cf81610696565b9050919050565b5f6106e082610431565b91506106eb83610431565b925082820390508181111561070357610702610600565b5b92915050565b5f61071382610431565b915061071e83610431565b925082820190508082111561073657610735610600565b5b92915050565b7f4e487b71000000000000000000000000000000000000000000000000000000005f52601260045260245ffd5b5f61077382610431565b915061077e83610431565b92508261078e5761078d61073c565b5b828204905092915050565b7f616464656420616d6f756e74732073686f756c64206d6174636820726174696f5f82015250565b5f6107cd602083610520565b91506107d882610799565b602082019050919050565b5f6020820190508181035f8301526107fa816107c1565b9050919050565b7f6e6f7420656e6f756768205820746f20737761700000000000000000000000005f82015250565b5f610835601483610520565b915061084082610801565b602082019050919050565b5f6020820190508181035f83015261086281610829565b905091905056fea2646970667358221220fc6b17730176f43102ff020eea983cc982401c527e57a94aaf5c92328ab184f964736f6c634300081c0033",
  "linkReferences": {},
  "deployedLinkReferences": {},
  "immutableReferences": {},
  "inputSourceName": "project/contracts/Counter.sol",
  "buildInfoId": "solc-0_8_28-1c63c498d87ae150949059b3ef1108ff93e21ba9"
}